{
  "contractName": "Split",
  "abi": [
    {
      "anonymous": false,
      "inputs": [
        {
          "indexed": true,
          "internalType": "bytes32",
          "name": "_name",
          "type": "bytes32"
        },
        {
          "indexed": false,
          "internalType": "uint256",
          "name": "_challengeEndTime",
          "type": "uint256"
        }
      ],
      "name": "GroupClosed",
      "type": "event"
    },
    {
      "anonymous": false,
      "inputs": [
        {
          "indexed": true,
          "internalType": "bytes32",
          "name": "_name",
          "type": "bytes32"
        },
        {
          "indexed": false,
          "internalType": "address[]",
          "name": "_users",
          "type": "address[]"
        },
        {
          "indexed": true,
          "internalType": "address",
          "name": "_token",
          "type": "address"
        },
        {
          "indexed": false,
          "internalType": "uint256",
          "name": "_timeout",
          "type": "uint256"
        }
      ],
      "name": "GroupCreated",
      "type": "event"
    },
    {
      "anonymous": false,
      "inputs": [
        {
          "indexed": true,
          "internalType": "bytes32",
          "name": "_name",
          "type": "bytes32"
        },
        {
          "indexed": false,
          "internalType": "uint256",
          "name": "_time",
          "type": "uint256"
        }
      ],
      "name": "GroupUpdated",
      "type": "event"
    },
    {
      "anonymous": false,
      "inputs": [
        {
          "indexed": true,
          "internalType": "bytes32",
          "name": "_name",
          "type": "bytes32"
        },
        {
          "indexed": true,
          "internalType": "address",
          "name": "_user",
          "type": "address"
        },
        {
          "indexed": true,
          "internalType": "address",
          "name": "_token",
          "type": "address"
        },
        {
          "indexed": false,
          "internalType": "uint256",
          "name": "_deposit",
          "type": "uint256"
        },
        {
          "indexed": false,
          "internalType": "uint256",
          "name": "_balance",
          "type": "uint256"
        }
      ],
      "name": "UserBalanceUpdated",
      "type": "event"
    },
    {
      "anonymous": false,
      "inputs": [
        {
          "indexed": true,
          "internalType": "bytes32",
          "name": "_name",
          "type": "bytes32"
        },
        {
          "indexed": true,
          "internalType": "address",
          "name": "_user",
          "type": "address"
        },
        {
          "indexed": true,
          "internalType": "address",
          "name": "_token",
          "type": "address"
        },
        {
          "indexed": false,
          "internalType": "uint256",
          "name": "_refund",
          "type": "uint256"
        }
      ],
      "name": "UserBalanceWithdrawn",
      "type": "event"
    },
    {
      "constant": true,
      "inputs": [
        {
          "internalType": "bytes32",
          "name": "",
          "type": "bytes32"
        },
        {
          "internalType": "address",
          "name": "",
          "type": "address"
        }
      ],
      "name": "groupBalances",
      "outputs": [
        {
          "internalType": "uint256",
          "name": "",
          "type": "uint256"
        }
      ],
      "payable": false,
      "stateMutability": "view",
      "type": "function"
    },
    {
      "constant": true,
      "inputs": [
        {
          "internalType": "bytes32",
          "name": "",
          "type": "bytes32"
        }
      ],
      "name": "groupCloseTime",
      "outputs": [
        {
          "internalType": "uint256",
          "name": "",
          "type": "uint256"
        }
      ],
      "payable": false,
      "stateMutability": "view",
      "type": "function"
    },
    {
      "constant": true,
      "inputs": [
        {
          "internalType": "bytes32",
          "name": "",
          "type": "bytes32"
        }
      ],
      "name": "groupNonce",
      "outputs": [
        {
          "internalType": "uint256",
          "name": "",
          "type": "uint256"
        }
      ],
      "payable": false,
      "stateMutability": "view",
      "type": "function"
    },
    {
      "constant": true,
      "inputs": [
        {
          "internalType": "bytes32",
          "name": "",
          "type": "bytes32"
        },
        {
          "internalType": "address",
          "name": "",
          "type": "address"
        }
      ],
      "name": "groupState",
      "outputs": [
        {
          "internalType": "uint256",
          "name": "amount",
          "type": "uint256"
        },
        {
          "internalType": "bool",
          "name": "isCredit",
          "type": "bool"
        }
      ],
      "payable": false,
      "stateMutability": "view",
      "type": "function"
    },
    {
      "constant": true,
      "inputs": [
        {
          "internalType": "bytes32",
          "name": "",
          "type": "bytes32"
        }
      ],
      "name": "groupTimeout",
      "outputs": [
        {
          "internalType": "uint256",
          "name": "",
          "type": "uint256"
        }
      ],
      "payable": false,
      "stateMutability": "view",
      "type": "function"
    },
    {
      "constant": true,
      "inputs": [
        {
          "internalType": "bytes32",
          "name": "",
          "type": "bytes32"
        }
      ],
      "name": "groupToken",
      "outputs": [
        {
          "internalType": "address",
          "name": "",
          "type": "address"
        }
      ],
      "payable": false,
      "stateMutability": "view",
      "type": "function"
    },
    {
      "constant": true,
      "inputs": [
        {
          "internalType": "bytes32",
          "name": "",
          "type": "bytes32"
        },
        {
          "internalType": "uint256",
          "name": "",
          "type": "uint256"
        }
      ],
      "name": "groupUsers",
      "outputs": [
        {
          "internalType": "address",
          "name": "",
          "type": "address"
        }
      ],
      "payable": false,
      "stateMutability": "view",
      "type": "function"
    },
    {
      "constant": true,
      "inputs": [
        {
          "internalType": "bytes32",
          "name": "",
          "type": "bytes32"
        },
        {
          "internalType": "address",
          "name": "",
          "type": "address"
        }
      ],
      "name": "inGroup",
      "outputs": [
        {
          "internalType": "bool",
          "name": "",
          "type": "bool"
        }
      ],
      "payable": false,
      "stateMutability": "view",
      "type": "function"
    },
    {
      "constant": false,
      "inputs": [
        {
          "internalType": "bytes32",
          "name": "_name",
          "type": "bytes32"
        },
        {
          "internalType": "address[]",
          "name": "_users",
          "type": "address[]"
        },
        {
          "internalType": "address",
          "name": "_token",
          "type": "address"
        },
        {
          "internalType": "uint256",
          "name": "_timeout",
          "type": "uint256"
        }
      ],
      "name": "createGroup",
      "outputs": [],
      "payable": false,
      "stateMutability": "nonpayable",
      "type": "function"
    },
    {
      "constant": false,
      "inputs": [
        {
          "internalType": "bytes32",
          "name": "_name",
          "type": "bytes32"
        },
        {
          "internalType": "address",
          "name": "_user",
          "type": "address"
        },
        {
          "internalType": "uint256",
          "name": "_amount",
          "type": "uint256"
        }
      ],
      "name": "fundUser",
      "outputs": [],
      "payable": false,
      "stateMutability": "nonpayable",
      "type": "function"
    },
    {
      "constant": false,
      "inputs": [
        {
          "internalType": "bytes32",
          "name": "_name",
          "type": "bytes32"
        },
        {
          "internalType": "uint256[]",
          "name": "_amounts",
          "type": "uint256[]"
        },
        {
          "internalType": "bool[]",
          "name": "_isCredits",
          "type": "bool[]"
        },
        {
          "internalType": "uint256",
          "name": "_timestamp",
          "type": "uint256"
        },
        {
          "internalType": "uint8[]",
          "name": "_vs",
          "type": "uint8[]"
        },
        {
          "internalType": "bytes32[]",
          "name": "_rs",
          "type": "bytes32[]"
        },
        {
          "internalType": "bytes32[]",
          "name": "_ss",
          "type": "bytes32[]"
        }
      ],
      "name": "closeGroup",
      "outputs": [],
      "payable": false,
      "stateMutability": "nonpayable",
      "type": "function"
    },
    {
      "constant": false,
      "inputs": [
        {
          "internalType": "bytes32",
          "name": "_name",
          "type": "bytes32"
        },
        {
          "internalType": "uint256[]",
          "name": "_amounts",
          "type": "uint256[]"
        },
        {
          "internalType": "bool[]",
          "name": "_isCredits",
          "type": "bool[]"
        },
        {
          "internalType": "uint256",
          "name": "_timestamp",
          "type": "uint256"
        },
        {
          "internalType": "uint8[]",
          "name": "_vs",
          "type": "uint8[]"
        },
        {
          "internalType": "bytes32[]",
          "name": "_rs",
          "type": "bytes32[]"
        },
        {
          "internalType": "bytes32[]",
          "name": "_ss",
          "type": "bytes32[]"
        }
      ],
      "name": "updateGroup",
      "outputs": [],
      "payable": false,
      "stateMutability": "nonpayable",
      "type": "function"
    },
    {
      "constant": false,
      "inputs": [
        {
          "internalType": "bytes32",
          "name": "_name",
          "type": "bytes32"
        }
      ],
      "name": "pullFunds",
      "outputs": [],
      "payable": false,
      "stateMutability": "nonpayable",
      "type": "function"
    },
    {
      "constant": true,
      "inputs": [
        {
          "internalType": "bytes32",
          "name": "_name",
          "type": "bytes32"
        },
        {
          "internalType": "uint256[]",
          "name": "_amounts",
          "type": "uint256[]"
        },
        {
          "internalType": "bool[]",
          "name": "_isCredits",
          "type": "bool[]"
        },
        {
          "internalType": "uint256",
          "name": "_timestamp",
          "type": "uint256"
        },
        {
          "internalType": "uint8[]",
          "name": "_vs",
          "type": "uint8[]"
        },
        {
          "internalType": "bytes32[]",
          "name": "_rs",
          "type": "bytes32[]"
        },
        {
          "internalType": "bytes32[]",
          "name": "_ss",
          "type": "bytes32[]"
        }
      ],
      "name": "checkSigs",
      "outputs": [
        {
          "internalType": "bool",
          "name": "",
          "type": "bool"
        }
      ],
      "payable": false,
      "stateMutability": "view",
      "type": "function"
    },
    {
      "constant": true,
      "inputs": [
        {
          "internalType": "bytes32",
          "name": "_name",
          "type": "bytes32"
        },
        {
          "internalType": "address",
          "name": "_user",
          "type": "address"
        },
        {
          "internalType": "uint256[]",
          "name": "_amounts",
          "type": "uint256[]"
        },
        {
          "internalType": "bool[]",
          "name": "_isCredits",
          "type": "bool[]"
        },
        {
          "internalType": "uint256",
          "name": "_timestamp",
          "type": "uint256"
        },
        {
          "internalType": "uint8",
          "name": "_v",
          "type": "uint8"
        },
        {
          "internalType": "bytes32",
          "name": "_r",
          "type": "bytes32"
        },
        {
          "internalType": "bytes32",
          "name": "_s",
          "type": "bytes32"
        }
      ],
      "name": "checkSig",
      "outputs": [
        {
          "internalType": "bool",
          "name": "",
          "type": "bool"
        }
      ],
      "payable": false,
      "stateMutability": "view",
      "type": "function"
    }
  ],
  "bytecode": "0x608060405234801561001057600080fd5b50613a51806100206000396000f3fe608060405234801561001057600080fd5b50600436106100f55760003560e01c806396150c9211610097578063b4dad59611610066578063b4dad596146106ad578063b524c385146109e1578063c44cafca14610a23578063d15006a514610bdd576100f5565b806396150c92146104ee578063a12c61501461055c578063a318dd11146105be578063b4378e0814610600576100f5565b8063638028ec116100d3578063638028ec146101fb5780638a1ad3d4146102535780638b0d296e146102cb57806390554574146104ac576100f5565b80633fa8f507146100fa57806347e0238014610160578063539d8f851461018e575b600080fd5b6101466004803603604081101561011057600080fd5b8101908080359060200190929190803573ffffffffffffffffffffffffffffffffffffffff169060200190929190505050610ef9565b604051808215151515815260200191505060405180910390f35b61018c6004803603602081101561017657600080fd5b8101908080359060200190929190505050610f28565b005b6101da600480360360408110156101a457600080fd5b8101908080359060200190929190803573ffffffffffffffffffffffffffffffffffffffff169060200190929190505050611539565b60405180838152602001821515151581526020019250505060405180910390f35b6102516004803603606081101561021157600080fd5b8101908080359060200190929190803573ffffffffffffffffffffffffffffffffffffffff16906020019092919080359060200190929190505050611577565b005b6102896004803603604081101561026957600080fd5b810190808035906020019092919080359060200190929190505050611ab8565b604051808273ffffffffffffffffffffffffffffffffffffffff1673ffffffffffffffffffffffffffffffffffffffff16815260200191505060405180910390f35b6104aa600480360360e08110156102e157600080fd5b81019080803590602001909291908035906020019064010000000081111561030857600080fd5b82018360208201111561031a57600080fd5b8035906020019184602083028401116401000000008311171561033c57600080fd5b90919293919293908035906020019064010000000081111561035d57600080fd5b82018360208201111561036f57600080fd5b8035906020019184602083028401116401000000008311171561039157600080fd5b909192939192939080359060200190929190803590602001906401000000008111156103bc57600080fd5b8201836020820111156103ce57600080fd5b803590602001918460208302840111640100000000831117156103f057600080fd5b90919293919293908035906020019064010000000081111561041157600080fd5b82018360208201111561042357600080fd5b8035906020019184602083028401116401000000008311171561044557600080fd5b90919293919293908035906020019064010000000081111561046657600080fd5b82018360208201111561047857600080fd5b8035906020019184602083028401116401000000008311171561049a57600080fd5b9091929391929390505050611b03565b005b6104d8600480360360208110156104c257600080fd5b8101908080359060200190929190505050611d76565b6040518082815260200191505060405180910390f35b61051a6004803603602081101561050457600080fd5b8101908080359060200190929190505050611d8e565b604051808273ffffffffffffffffffffffffffffffffffffffff1673ffffffffffffffffffffffffffffffffffffffff16815260200191505060405180910390f35b6105a86004803603604081101561057257600080fd5b8101908080359060200190929190803573ffffffffffffffffffffffffffffffffffffffff169060200190929190505050611dc1565b6040518082815260200191505060405180910390f35b6105ea600480360360208110156105d457600080fd5b8101908080359060200190929190505050611de6565b6040518082815260200191505060405180910390f35b6106ab6004803603608081101561061657600080fd5b81019080803590602001909291908035906020019064010000000081111561063d57600080fd5b82018360208201111561064f57600080fd5b8035906020019184602083028401116401000000008311171561067157600080fd5b9091929391929390803573ffffffffffffffffffffffffffffffffffffffff16906020019092919080359060200190929190505050611dfe565b005b6109c7600480360360e08110156106c357600080fd5b8101908080359060200190929190803590602001906401000000008111156106ea57600080fd5b8201836020820111156106fc57600080fd5b8035906020019184602083028401116401000000008311171561071e57600080fd5b919080806020026020016040519081016040528093929190818152602001838360200280828437600081840152601f19601f8201169050808301925050505050505091929192908035906020019064010000000081111561077e57600080fd5b82018360208201111561079057600080fd5b803590602001918460208302840111640100000000831117156107b257600080fd5b919080806020026020016040519081016040528093929190818152602001838360200280828437600081840152601f19601f820116905080830192505050505050509192919290803590602001909291908035906020019064010000000081111561081c57600080fd5b82018360208201111561082e57600080fd5b8035906020019184602083028401116401000000008311171561085057600080fd5b919080806020026020016040519081016040528093929190818152602001838360200280828437600081840152601f19601f820116905080830192505050505050509192919290803590602001906401000000008111156108b057600080fd5b8201836020820111156108c257600080fd5b803590602001918460208302840111640100000000831117156108e457600080fd5b919080806020026020016040519081016040528093929190818152602001838360200280828437600081840152601f19601f8201169050808301925050505050505091929192908035906020019064010000000081111561094457600080fd5b82018360208201111561095657600080fd5b8035906020019184602083028401116401000000008311171561097857600080fd5b919080806020026020016040519081016040528093929190818152602001838360200280828437600081840152601f19601f8201169050808301925050505050505091929192905050506122eb565b604051808215151515815260200191505060405180910390f35b610a0d600480360360208110156109f757600080fd5b8101908080359060200190929190505050612631565b6040518082815260200191505060405180910390f35b610bc36004803603610100811015610a3a57600080fd5b8101908080359060200190929190803573ffffffffffffffffffffffffffffffffffffffff16906020019092919080359060200190640100000000811115610a8157600080fd5b820183602082011115610a9357600080fd5b80359060200191846020830284011164010000000083111715610ab557600080fd5b919080806020026020016040519081016040528093929190818152602001838360200280828437600081840152601f19601f82011690508083019250505050505050919291929080359060200190640100000000811115610b1557600080fd5b820183602082011115610b2757600080fd5b80359060200191846020830284011164010000000083111715610b4957600080fd5b919080806020026020016040519081016040528093929190818152602001838360200280828437600081840152601f19601f82011690508083019250505050505050919291929080359060200190929190803560ff1690602001909291908035906020019092919080359060200190929190505050612649565b604051808215151515815260200191505060405180910390f35b610ef7600480360360e0811015610bf357600080fd5b810190808035906020019092919080359060200190640100000000811115610c1a57600080fd5b820183602082011115610c2c57600080fd5b80359060200191846020830284011164010000000083111715610c4e57600080fd5b919080806020026020016040519081016040528093929190818152602001838360200280828437600081840152601f19601f82011690508083019250505050505050919291929080359060200190640100000000811115610cae57600080fd5b820183602082011115610cc057600080fd5b80359060200191846020830284011164010000000083111715610ce257600080fd5b919080806020026020016040519081016040528093929190818152602001838360200280828437600081840152601f19601f8201169050808301925050505050505091929192908035906020019092919080359060200190640100000000811115610d4c57600080fd5b820183602082011115610d5e57600080fd5b80359060200191846020830284011164010000000083111715610d8057600080fd5b919080806020026020016040519081016040528093929190818152602001838360200280828437600081840152601f19601f82011690508083019250505050505050919291929080359060200190640100000000811115610de057600080fd5b820183602082011115610df257600080fd5b80359060200191846020830284011164010000000083111715610e1457600080fd5b919080806020026020016040519081016040528093929190818152602001838360200280828437600081840152601f19601f82011690508083019250505050505050919291929080359060200190640100000000811115610e7457600080fd5b820183602082011115610e8657600080fd5b80359060200191846020830284011164010000000083111715610ea857600080fd5b919080806020026020016040519081016040528093929190818152602001838360200280828437600081840152601f19601f820116905080830192505050505050509192919290505050612827565b005b60016020528160005260406000206020528060005260406000206000915091509054906101000a900460ff1681565b6001600082815260200190815260200160002060003373ffffffffffffffffffffffffffffffffffffffff1673ffffffffffffffffffffffffffffffffffffffff16815260200190815260200160002060009054906101000a900460ff16610ff8576040517f08c379a00000000000000000000000000000000000000000000000000000000081526004018080602001828103825260148152602001807f55736572206973206e6f7420696e2067726f757000000000000000000000000081525060200191505060405180910390fd5b600060056000838152602001908152602001600020541415611082576040517f08c379a00000000000000000000000000000000000000000000000000000000081526004018080602001828103825260138152602001807f436c6f7365206e6f7420696e697469617465640000000000000000000000000081525060200191505060405180910390fd5b6005600082815260200190815260200160002054421161110a576040517f08c379a00000000000000000000000000000000000000000000000000000000081526004018080602001828103825260178152602001807f4368616c6c656e676520706572696f642061637469766500000000000000000081525060200191505060405180910390fd5b61111261391d565b6007600083815260200190815260200160002060003373ffffffffffffffffffffffffffffffffffffffff1673ffffffffffffffffffffffffffffffffffffffff168152602001908152602001600020604051806040016040529081600082015481526020016001820160009054906101000a900460ff1615151515815250509050600081602001511561120d57611206826000015160008086815260200190815260200160002060003373ffffffffffffffffffffffffffffffffffffffff1673ffffffffffffffffffffffffffffffffffffffff16815260200190815260200160002054612c6c90919063ffffffff16565b9050611276565b611273826000015160008086815260200190815260200160002060003373ffffffffffffffffffffffffffffffffffffffff1673ffffffffffffffffffffffffffffffffffffffff16815260200190815260200160002054612cf490919063ffffffff16565b90505b6003600084815260200190815260200160002060009054906101000a900473ffffffffffffffffffffffffffffffffffffffff1673ffffffffffffffffffffffffffffffffffffffff1663a9059cbb33836040518363ffffffff1660e01b8152600401808373ffffffffffffffffffffffffffffffffffffffff1673ffffffffffffffffffffffffffffffffffffffff16815260200182815260200192505050602060405180830381600087803b15801561133057600080fd5b505af1158015611344573d6000803e3d6000fd5b505050506040513d602081101561135a57600080fd5b81019080805190602001909291905050506113dd576040517f08c379a000000000000000000000000000000000000000000000000000000000815260040180806020018281038252600f8152602001807f5472616e73666572204661696c6564000000000000000000000000000000000081525060200191505060405180910390fd5b6003600084815260200190815260200160002060009054906101000a900473ffffffffffffffffffffffffffffffffffffffff1673ffffffffffffffffffffffffffffffffffffffff163373ffffffffffffffffffffffffffffffffffffffff16847f74ed8246578a544482ad8494d76805b264b0b7666c3700eb6e17eec4d0fed7f4846040518082815260200191505060405180910390a4600080600085815260200190815260200160002060003373ffffffffffffffffffffffffffffffffffffffff1673ffffffffffffffffffffffffffffffffffffffff1681526020019081526020016000208190555060006001600085815260200190815260200160002060003373ffffffffffffffffffffffffffffffffffffffff1673ffffffffffffffffffffffffffffffffffffffff16815260200190815260200160002060006101000a81548160ff021916908315150217905550505050565b6007602052816000526040600020602052806000526040600020600091509150508060000154908060010160009054906101000a900460ff16905082565b600073ffffffffffffffffffffffffffffffffffffffff168273ffffffffffffffffffffffffffffffffffffffff16141561161a576040517f08c379a000000000000000000000000000000000000000000000000000000000815260040180806020018281038252600c8152602001807f496e76616c69642075736572000000000000000000000000000000000000000081525060200191505060405180910390fd5b6001600084815260200190815260200160002060008373ffffffffffffffffffffffffffffffffffffffff1673ffffffffffffffffffffffffffffffffffffffff16815260200190815260200160002060009054906101000a900460ff166116ea576040517f08c379a00000000000000000000000000000000000000000000000000000000081526004018080602001828103825260118152602001807f55736572206e6f7420696e2067726f757000000000000000000000000000000081525060200191505060405180910390fd5b6000600560008581526020019081526020016000205414611773576040517f08c379a000000000000000000000000000000000000000000000000000000000815260040180806020018281038252600f8152602001807f47726f757020697320636c6f736564000000000000000000000000000000000081525060200191505060405180910390fd5b6003600084815260200190815260200160002060009054906101000a900473ffffffffffffffffffffffffffffffffffffffff1673ffffffffffffffffffffffffffffffffffffffff166323b872dd3330846040518463ffffffff1660e01b8152600401808473ffffffffffffffffffffffffffffffffffffffff1673ffffffffffffffffffffffffffffffffffffffff1681526020018373ffffffffffffffffffffffffffffffffffffffff1673ffffffffffffffffffffffffffffffffffffffff1681526020018281526020019350505050602060405180830381600087803b15801561186157600080fd5b505af1158015611875573d6000803e3d6000fd5b505050506040513d602081101561188b57600080fd5b810190808051906020019092919050505061190e576040517f08c379a000000000000000000000000000000000000000000000000000000000815260040180806020018281038252600f8152602001807f5472616e73666572204661696c6564000000000000000000000000000000000081525060200191505060405180910390fd5b6119708160008086815260200190815260200160002060008573ffffffffffffffffffffffffffffffffffffffff1673ffffffffffffffffffffffffffffffffffffffff16815260200190815260200160002054612c6c90919063ffffffff16565b60008085815260200190815260200160002060008473ffffffffffffffffffffffffffffffffffffffff1673ffffffffffffffffffffffffffffffffffffffff168152602001908152602001600020819055506003600084815260200190815260200160002060009054906101000a900473ffffffffffffffffffffffffffffffffffffffff1673ffffffffffffffffffffffffffffffffffffffff168273ffffffffffffffffffffffffffffffffffffffff16847fb0b433ac55fa87d2325d965ba48a4c1bd255f4d962fcc30f2b0237306c86047f8460008089815260200190815260200160002060008873ffffffffffffffffffffffffffffffffffffffff1673ffffffffffffffffffffffffffffffffffffffff16815260200190815260200160002054604051808381526020018281526020019250505060405180910390a4505050565b60026020528160005260406000208181548110611ad157fe5b906000526020600020016000915091509054906101000a900473ffffffffffffffffffffffffffffffffffffffff1681565b6000600560008e81526020019081526020016000205414611b8c576040517f08c379a00000000000000000000000000000000000000000000000000000000081526004018080602001828103825260148152602001807f47726f757020616c726561647920636c6f73656400000000000000000000000081525060200191505060405180910390fd5b611bb2600460008e81526020019081526020016000205442612c6c90919063ffffffff16565b600560008e815260200190815260200160002081905550611d1d8c8c8c80806020026020016040519081016040528093929190818152602001838360200280828437600081840152601f19601f820116905080830192505050505050508b8b80806020026020016040519081016040528093929190818152602001838360200280828437600081840152601f19601f820116905080830192505050505050508a8a8a80806020026020016040519081016040528093929190818152602001838360200280828437600081840152601f19601f82011690508083019250505050505050898980806020026020016040519081016040528093929190818152602001838360200280828437600081840152601f19601f82011690508083019250505050505050888880806020026020016040519081016040528093929190818152602001838360200280828437600081840152601f19601f82011690508083019250505050505050612827565b8b7fb1a73a0cf4b170db78d7ce693ffa2a96b34006943944d20eac8c523e86d0e291600560008f8152602001908152602001600020546040518082815260200191505060405180910390a2505050505050505050505050565b60046020528060005260406000206000915090505481565b60036020528060005260406000206000915054906101000a900473ffffffffffffffffffffffffffffffffffffffff1681565b6000602052816000526040600020602052806000526040600020600091509150505481565b60066020528060005260406000206000915090505481565b60018484905011611e77576040517f08c379a000000000000000000000000000000000000000000000000000000000815260040180806020018281038252600b8152602001807f456d7074792067726f757000000000000000000000000000000000000000000081525060200191505060405180910390fd5b6004848490501115611ef1576040517f08c379a000000000000000000000000000000000000000000000000000000000815260040180806020018281038252600f8152602001807f47726f757020746f6f206c61726765000000000000000000000000000000000081525060200191505060405180910390fd5b6000600260008781526020019081526020016000208054905014611f7d576040517f08c379a000000000000000000000000000000000000000000000000000000000815260040180806020018281038252600b8152602001807f4e616d6520696e2075736500000000000000000000000000000000000000000081525060200191505060405180910390fd5b600073ffffffffffffffffffffffffffffffffffffffff168273ffffffffffffffffffffffffffffffffffffffff161415612020576040517f08c379a000000000000000000000000000000000000000000000000000000000815260040180806020018281038252600d8152602001807f496e76616c696420746f6b656e0000000000000000000000000000000000000081525060200191505060405180910390fd5b8383600260008881526020019081526020016000209190612042929190613939565b50816003600087815260200190815260200160002060006101000a81548173ffffffffffffffffffffffffffffffffffffffff021916908373ffffffffffffffffffffffffffffffffffffffff16021790555080600460008781526020019081526020016000208190555060008090505b848490508160ff16101561225d5760016000878152602001908152602001600020600086868460ff168181106120e557fe5b9050602002013573ffffffffffffffffffffffffffffffffffffffff1673ffffffffffffffffffffffffffffffffffffffff1673ffffffffffffffffffffffffffffffffffffffff16815260200190815260200160002060009054906101000a900460ff16156121bd576040517f08c379a000000000000000000000000000000000000000000000000000000000815260040180806020018281038252600f8152602001807f4475706c6963617465207573657273000000000000000000000000000000000081525060200191505060405180910390fd5b6001806000888152602001908152602001600020600087878560ff168181106121e257fe5b9050602002013573ffffffffffffffffffffffffffffffffffffffff1673ffffffffffffffffffffffffffffffffffffffff1673ffffffffffffffffffffffffffffffffffffffff16815260200190815260200160002060006101000a81548160ff02191690831515021790555080806001019150506120b3565b508173ffffffffffffffffffffffffffffffffffffffff16857f5ac0deb59837edf1f086833bdb252ecb33606a49bebfb09ff32038fdbc11d23286868560405180806020018381526020018281038252858582818152602001925060200280828437600081840152601f19601f82011690508083019250505094505050505060405180910390a35050505050565b60008251845114612364576040517f08c379a000000000000000000000000000000000000000000000000000000000815260040180806020018281038252600e8152602001807f426164207369676e61747572657300000000000000000000000000000000000081525060200191505060405180910390fd5b81518451146123db576040517f08c379a000000000000000000000000000000000000000000000000000000000815260040180806020018281038252600e8152602001807f426164207369676e61747572657300000000000000000000000000000000000081525060200191505060405180910390fd5b6002600089815260200190815260200160002080549050845114612467576040517f08c379a00000000000000000000000000000000000000000000000000000000081526004018080602001828103825260158152602001807f496e636f72726563742073696773206c656e677468000000000000000000000081525060200191505060405180910390fd5b86518451146124de576040517f08c379a00000000000000000000000000000000000000000000000000000000081526004018080602001828103825260188152602001807f496e636f727265637420616d6f756e7473206c656e677468000000000000000081525060200191505060405180910390fd5b60008090505b600260008a8152602001908152602001600020805490508160ff161015612621576125a289600260008c81526020019081526020016000208360ff168154811061252a57fe5b9060005260206000200160009054906101000a900473ffffffffffffffffffffffffffffffffffffffff168a8a8a8a8760ff168151811061256757fe5b60200260200101518a8860ff168151811061257e57fe5b60200260200101518a8960ff168151811061259557fe5b6020026020010151612649565b612614576040517f08c379a00000000000000000000000000000000000000000000000000000000081526004018080602001828103825260118152602001807f496e76616c6964207369676e617475726500000000000000000000000000000081525060200191505060405180910390fd5b80806001019150506124e4565b5060019050979650505050505050565b60056020528060005260406000206000915090505481565b600085518751146126c2576040517f08c379a000000000000000000000000000000000000000000000000000000000815260040180806020018281038252601a8152602001807f496e636f727265637420697343726564697473206c656e67746800000000000081525060200191505060405180910390fd5b60006002885114156126dd576126da8a898989612d3e565b90505b6003885114156126f6576126f38a898989612fa3565b90505b60048851141561270f5761270c8a898989613297565b90505b60018186868660405160008152602001604052604051808581526020018460ff1660ff1681526020018381526020018281526020019450505050506020604051602081039080840390855afa15801561276c573d6000803e3d6000fd5b5050506020604051035173ffffffffffffffffffffffffffffffffffffffff168973ffffffffffffffffffffffffffffffffffffffff1614612816576040517f08c379a00000000000000000000000000000000000000000000000000000000081526004018080602001828103825260128152602001807f5369676e6174757265206d69736d61746368000000000000000000000000000081525060200191505060405180910390fd5b600191505098975050505050505050565b6001600088815260200190815260200160002060003373ffffffffffffffffffffffffffffffffffffffff1673ffffffffffffffffffffffffffffffffffffffff16815260200190815260200160002060009054906101000a900460ff166128f7576040517f08c379a00000000000000000000000000000000000000000000000000000000081526004018080602001828103825260148152602001807f55736572206973206e6f7420696e2067726f757000000000000000000000000081525060200191505060405180910390fd5b8360066000898152602001908152602001600020541061291657600080fd5b6000600560008981526020019081526020016000205414156129a0576040517f08c379a00000000000000000000000000000000000000000000000000000000081526004018080602001828103825260108152602001807f47726f7570206e6f7420636c6f7365640000000000000000000000000000000081525060200191505060405180910390fd5b8451865114612a17576040517f08c379a00000000000000000000000000000000000000000000000000000000081526004018080602001828103825260158152602001807f496e76616c6964207374617465206c656e67746873000000000000000000000081525060200191505060405180910390fd5b6002600088815260200190815260200160002080549050865114612aa3576040517f08c379a00000000000000000000000000000000000000000000000000000000081526004018080602001828103825260148152602001807f496e76616c69642075736572206c656e6774687300000000000000000000000081525060200191505060405180910390fd5b6005600088815260200190815260200160002054421115612b2c576040517f08c379a000000000000000000000000000000000000000000000000000000000815260040180806020018281038252601b8152602001807f4368616c6c656e676520706572696f64206e6f7420616374697665000000000081525060200191505060405180910390fd5b612b3b878787878787876122eb565b612bad576040517f08c379a000000000000000000000000000000000000000000000000000000000815260040180806020018281038252600c8152602001807f496e76616c69642073696773000000000000000000000000000000000000000081525060200191505060405180910390fd5b612bb98787878761361a565b612c2b576040517f08c379a000000000000000000000000000000000000000000000000000000000815260040180806020018281038252600d8152602001807f496e76616c69642073746174650000000000000000000000000000000000000081525060200191505060405180910390fd5b867fed7eceb3ac9e8f473771775da5d245244aed7f7d4f78524fddd21280cda3aa5c426040518082815260200191505060405180910390a250505050505050565b600080828401905083811015612cea576040517f08c379a000000000000000000000000000000000000000000000000000000000815260040180806020018281038252601b8152602001807f536166654d6174683a206164646974696f6e206f766572666c6f77000000000081525060200191505060405180910390fd5b8091505092915050565b6000612d3683836040518060400160405280601e81526020017f536166654d6174683a207375627472616374696f6e206f766572666c6f77000081525061385d565b905092915050565b60008030868487600081518110612d5157fe5b602002602001015187600081518110612d6657fe5b602002602001015189600181518110612d7b57fe5b602002602001015189600181518110612d9057fe5b6020026020010151604051602001808873ffffffffffffffffffffffffffffffffffffffff1673ffffffffffffffffffffffffffffffffffffffff1660601b8152601401878152602001868152602001858152602001841515151560f81b8152600101838152602001821515151560f81b8152600101975050505050505050604051602081830303815290604052805190602001209050600060405160200180807f616464726573732073706c697445544800000000000000000000000000000000815250601001807f62797465733332206e616d650000000000000000000000000000000000000000815250600c01807f75696e743235362074696d657374616d70000000000000000000000000000000815250601101807f75696e7432353620616d6f756e745f3000000000000000000000000000000000815250601001807f626f6f6c2069734372656469745f300000000000000000000000000000000000815250600f01807f75696e7432353620616d6f756e745f3100000000000000000000000000000000815250601001807f626f6f6c2069734372656469745f310000000000000000000000000000000000815250600f019050604051602081830303815290604052805190602001209050600081836040516020018083815260200182815260200192505050604051602081830303815290604052805190602001209050809350505050949350505050565b60008030868487600081518110612fb657fe5b602002602001015187600081518110612fcb57fe5b602002602001015189600181518110612fe057fe5b602002602001015189600181518110612ff557fe5b60200260200101518b60028151811061300a57fe5b60200260200101518b60028151811061301f57fe5b6020026020010151604051602001808a73ffffffffffffffffffffffffffffffffffffffff1673ffffffffffffffffffffffffffffffffffffffff1660601b8152601401898152602001888152602001878152602001861515151560f81b8152600101858152602001841515151560f81b8152600101838152602001821515151560f81b81526001019950505050505050505050604051602081830303815290604052805190602001209050600060405160200180807f616464726573732073706c697445544800000000000000000000000000000000815250601001807f62797465733332206e616d650000000000000000000000000000000000000000815250600c01807f75696e743235362074696d657374616d70000000000000000000000000000000815250601101807f75696e7432353620616d6f756e745f3000000000000000000000000000000000815250601001807f626f6f6c2069734372656469745f300000000000000000000000000000000000815250600f01807f75696e7432353620616d6f756e745f3100000000000000000000000000000000815250601001807f626f6f6c2069734372656469745f310000000000000000000000000000000000815250600f01807f75696e7432353620616d6f756e745f3200000000000000000000000000000000815250601001807f626f6f6c2069734372656469745f320000000000000000000000000000000000815250600f019050604051602081830303815290604052805190602001209050600081836040516020018083815260200182815260200192505050604051602081830303815290604052805190602001209050809350505050949350505050565b600080308684876000815181106132aa57fe5b6020026020010151876000815181106132bf57fe5b6020026020010151896001815181106132d457fe5b6020026020010151896001815181106132e957fe5b60200260200101518b6002815181106132fe57fe5b60200260200101518b60028151811061331357fe5b60200260200101518d60038151811061332857fe5b60200260200101518d60038151811061333d57fe5b6020026020010151604051602001808c73ffffffffffffffffffffffffffffffffffffffff1673ffffffffffffffffffffffffffffffffffffffff1660601b81526014018b81526020018a8152602001898152602001881515151560f81b8152600101878152602001861515151560f81b8152600101858152602001841515151560f81b8152600101838152602001821515151560f81b81526001019b505050505050505050505050604051602081830303815290604052805190602001209050600060405160200180807f616464726573732073706c697445544800000000000000000000000000000000815250601001807f62797465733332206e616d650000000000000000000000000000000000000000815250600c01807f75696e743235362074696d657374616d70000000000000000000000000000000815250601101807f75696e7432353620616d6f756e745f3000000000000000000000000000000000815250601001807f626f6f6c2069734372656469745f300000000000000000000000000000000000815250600f01807f75696e7432353620616d6f756e745f3100000000000000000000000000000000815250601001807f626f6f6c2069734372656469745f310000000000000000000000000000000000815250600f01807f75696e7432353620616d6f756e745f3200000000000000000000000000000000815250601001807f626f6f6c2069734372656469745f320000000000000000000000000000000000815250600f01807f75696e7432353620616d6f756e745f3300000000000000000000000000000000815250601001807f626f6f6c2069734372656469745f330000000000000000000000000000000000815250600f019050604051602081830303815290604052805190602001209050600081836040516020018083815260200182815260200192505050604051602081830303815290604052805190602001209050809350505050949350505050565b600080600080600090505b86518160ff1610156137c157858160ff168151811061364057fe5b60200260200101511561367d57613676878260ff168151811061365f57fe5b602002602001015184612c6c90919063ffffffff16565b92506136a9565b6136a6878260ff168151811061368f57fe5b602002602001015183612c6c90919063ffffffff16565b91505b6040518060400160405280888360ff16815181106136c357fe5b60200260200101518152602001878360ff16815181106136df57fe5b60200260200101511515815250600760008a81526020019081526020016000206000600260008c81526020019081526020016000208460ff168154811061372257fe5b9060005260206000200160009054906101000a900473ffffffffffffffffffffffffffffffffffffffff1673ffffffffffffffffffffffffffffffffffffffff1673ffffffffffffffffffffffffffffffffffffffff1681526020019081526020016000206000820151816000015560208201518160010160006101000a81548160ff0219169083151502179055509050508080600101915050613625565b50808214613837576040517f08c379a000000000000000000000000000000000000000000000000000000000815260040180806020018281038252600e8152602001807f4e6f6e2d7a65726f20737461746500000000000000000000000000000000000081525060200191505060405180910390fd5b836006600089815260200190815260200160002081905550600192505050949350505050565b600083831115829061390a576040517f08c379a00000000000000000000000000000000000000000000000000000000081526004018080602001828103825283818151815260200191508051906020019080838360005b838110156138cf5780820151818401526020810190506138b4565b50505050905090810190601f1680156138fc5780820380516001836020036101000a031916815260200191505b509250505060405180910390fd5b5060008385039050809150509392505050565b6040518060400160405280600081526020016000151581525090565b8280548282559060005260206000209081019282156139c8579160200282015b828111156139c757823573ffffffffffffffffffffffffffffffffffffffff168260006101000a81548173ffffffffffffffffffffffffffffffffffffffff021916908373ffffffffffffffffffffffffffffffffffffffff16021790555091602001919060010190613959565b5b5090506139d591906139d9565b5090565b613a1991905b80821115613a1557600081816101000a81549073ffffffffffffffffffffffffffffffffffffffff0219169055506001016139df565b5090565b9056fea265627a7a723158204bcad94ebcc864d0150ea9976edef56c60a55177634c9e0140f03a5ecce29b2964736f6c63430005100032",
  "source": "pragma solidity >=0.4.21 <0.7.0;\n\nimport \"./SafeMath.sol\";\nimport \"./ERC20.sol\";\n\ncontract Split {\n    using SafeMath for uint256;\n\n    struct State {\n        uint256 amount;\n        bool isCredit;\n    }\n\n    mapping (bytes32 => mapping (address => uint256)) public groupBalances;\n    mapping (bytes32 => mapping (address => bool)) public inGroup;\n    mapping (bytes32 => address[]) public groupUsers;\n    mapping (bytes32 => address) public groupToken;\n    mapping (bytes32 => uint256) public groupTimeout;\n    mapping (bytes32 => uint256) public groupCloseTime;\n    mapping (bytes32 => uint256) public groupNonce;\n    mapping (bytes32 => mapping (address => State)) public groupState;\n\n    event GroupCreated(bytes32 indexed _name, address[] _users, address indexed _token, uint256 _timeout);\n    event UserBalanceUpdated(bytes32 indexed _name, address indexed _user, address indexed _token, uint256 _deposit, uint256 _balance);\n    event GroupClosed(bytes32 indexed _name, uint256 _challengeEndTime);\n    event GroupUpdated(bytes32 indexed _name, uint256 _time);\n    event UserBalanceWithdrawn(bytes32 indexed _name, address indexed _user, address indexed _token, uint256 _refund);\n\n    function createGroup(bytes32 _name, address[] calldata _users, address _token, uint256 _timeout) external {\n        require(_users.length > 1, \"Empty group\");\n        require(_users.length <= 4, \"Group too large\");\n        require(groupUsers[_name].length == 0, \"Name in use\");\n        require(_token != address(0), \"Invalid token\");\n        groupUsers[_name] = _users;\n        groupToken[_name] = _token;\n        groupTimeout[_name] = _timeout;\n        for (uint8 i = 0; i < _users.length; i++) {\n            require(!inGroup[_name][_users[i]], \"Duplicate users\");\n            inGroup[_name][_users[i]] = true;\n        }\n        emit GroupCreated(_name, _users, _token, _timeout);\n    }\n\n    function fundUser(bytes32 _name, address _user, uint256 _amount) external {\n        require(_user != address(0), \"Invalid user\");\n        require(inGroup[_name][_user], \"User not in group\");\n        require(groupCloseTime[_name] == 0, \"Group is closed\");\n        require(ERC20(groupToken[_name]).transferFrom(msg.sender, address(this), _amount), \"Transfer Failed\");\n        groupBalances[_name][_user] = groupBalances[_name][_user].add(_amount);\n        emit UserBalanceUpdated(_name, _user, groupToken[_name], _amount, groupBalances[_name][_user]);\n    }\n\n    function closeGroup(bytes32 _name, uint256[] calldata _amounts, bool[] calldata _isCredits, uint256 _timestamp, uint8[] calldata _vs, bytes32[] calldata _rs, bytes32[] calldata _ss) external {\n        require(groupCloseTime[_name] == 0, \"Group already closed\");\n        groupCloseTime[_name] = now.add(groupTimeout[_name]);\n        updateGroup(_name, _amounts, _isCredits, _timestamp, _vs, _rs, _ss);\n        emit GroupClosed(_name, groupCloseTime[_name]);\n    }\n\n    function updateGroup(bytes32 _name, uint256[] memory _amounts, bool[] memory _isCredits, uint256 _timestamp, uint8[] memory _vs, bytes32[] memory _rs, bytes32[] memory _ss) public {\n        require(inGroup[_name][msg.sender], \"User is not in group\");\n        require(groupNonce[_name] < _timestamp);\n        require(groupCloseTime[_name] != 0, \"Group not closed\");\n        require(_amounts.length == _isCredits.length, \"Invalid state lengths\");\n        require(_amounts.length == groupUsers[_name].length, \"Invalid user lengths\");\n        require(now <= groupCloseTime[_name], \"Challenge period not active\");\n        require(checkSigs(_name, _amounts, _isCredits, _timestamp, _vs, _rs, _ss), \"Invalid sigs\");\n        require(_updateState(_name, _amounts, _isCredits, _timestamp), \"Invalid state\");\n        emit GroupUpdated(_name, now);\n    }\n\n    function pullFunds(bytes32 _name) external {\n        require(inGroup[_name][msg.sender], \"User is not in group\");\n        require(groupCloseTime[_name] != 0, \"Close not initiated\");\n        require(now > groupCloseTime[_name], \"Challenge period active\");\n        State memory userState = groupState[_name][msg.sender];\n        uint256 withdrawn;\n        if (userState.isCredit) {\n            withdrawn = groupBalances[_name][msg.sender].add(userState.amount);\n        } else {\n            withdrawn = groupBalances[_name][msg.sender].sub(userState.amount);\n        }\n        require(ERC20(groupToken[_name]).transfer(msg.sender, withdrawn), \"Transfer Failed\");\n        emit UserBalanceWithdrawn(_name, msg.sender, groupToken[_name], withdrawn);\n        groupBalances[_name][msg.sender] = 0;\n        inGroup[_name][msg.sender] = false;\n    }\n\n    function _updateState(bytes32 _name, uint256[] memory _amounts, bool[] memory _isCredits, uint256 _timestamp) internal returns(bool) {\n        uint256 credits;\n        uint256 debits;\n        for (uint8 i = 0; i < _amounts.length; i++) {\n            if (_isCredits[i]) {\n                credits = credits.add(_amounts[i]);\n            } else {\n                debits = debits.add(_amounts[i]);\n            }\n            groupState[_name][groupUsers[_name][i]] = State(_amounts[i], _isCredits[i]);\n        }\n        require(credits == debits, \"Non-zero state\");\n        groupNonce[_name] = _timestamp;\n        return true;\n    }\n\n    function checkSigs(bytes32 _name, uint256[] memory _amounts, bool[] memory _isCredits, uint256 _timestamp, uint8[] memory _vs, bytes32[] memory _rs, bytes32[] memory _ss) public view returns(bool) {\n        require(_vs.length == _rs.length, \"Bad signatures\");\n        require(_vs.length == _ss.length, \"Bad signatures\");\n        require(_vs.length == groupUsers[_name].length, \"Incorrect sigs length\");\n        require(_vs.length == _amounts.length, \"Incorrect amounts length\");\n        for (uint8 i = 0; i < groupUsers[_name].length; i++) {\n            require(checkSig(_name, groupUsers[_name][i], _amounts, _isCredits, _timestamp, _vs[i], _rs[i], _ss[i]), \"Invalid signature\");\n        }\n        return true;\n    }\n\n    function checkSig(bytes32 _name, address _user, uint256[] memory _amounts, bool[] memory _isCredits, uint256 _timestamp, uint8 _v, bytes32 _r, bytes32 _s) public view returns(bool) {\n        require(_amounts.length == _isCredits.length, \"Incorrect isCredits length\");\n        bytes32 typedData;\n        if (_amounts.length == 2) {\n            typedData = _getHash2(_name, _amounts, _isCredits, _timestamp);\n        }\n        if (_amounts.length == 3) {\n            typedData = _getHash3(_name, _amounts, _isCredits, _timestamp);\n        }\n        if (_amounts.length == 4) {\n            typedData = _getHash4(_name, _amounts, _isCredits, _timestamp);\n        }\n        require(_user == ecrecover(typedData, _v, _r, _s), \"Signature mismatch\");\n        return true;\n    }\n\n    function _getHash2(bytes32 _name, uint256[] memory _amounts, bool[] memory _isCredits, uint256 _timestamp) internal view returns(bytes32) {\n        bytes32 stateData = keccak256(abi.encodePacked(address(this), _name, _timestamp, _amounts[0], _isCredits[0], _amounts[1], _isCredits[1]));\n        bytes32 abiHash = keccak256(abi.encodePacked(\"address splitETH\", \"bytes32 name\", \"uint256 timestamp\", \"uint256 amount_0\", \"bool isCredit_0\", \"uint256 amount_1\", \"bool isCredit_1\"));\n        bytes32 typedData = keccak256(abi.encodePacked(abiHash, stateData));\n        return typedData;\n    }\n\n    function _getHash3(bytes32 _name, uint256[] memory _amounts, bool[] memory _isCredits, uint256 _timestamp) internal view returns(bytes32) {\n        bytes32 stateData = keccak256(abi.encodePacked(address(this), _name, _timestamp, _amounts[0], _isCredits[0], _amounts[1], _isCredits[1], _amounts[2], _isCredits[2]));\n        bytes32 abiHash = keccak256(abi.encodePacked(\"address splitETH\", \"bytes32 name\", \"uint256 timestamp\", \"uint256 amount_0\", \"bool isCredit_0\", \"uint256 amount_1\", \"bool isCredit_1\", \"uint256 amount_2\", \"bool isCredit_2\"));\n        bytes32 typedData = keccak256(abi.encodePacked(abiHash, stateData));\n        return typedData;\n    }\n\n    function _getHash4(bytes32 _name, uint256[] memory _amounts, bool[] memory _isCredits, uint256 _timestamp) internal view returns(bytes32) {\n        bytes32 stateData = keccak256(abi.encodePacked(address(this), _name, _timestamp, _amounts[0], _isCredits[0], _amounts[1], _isCredits[1], _amounts[2], _isCredits[2], _amounts[3], _isCredits[3]));\n        bytes32 abiHash = keccak256(abi.encodePacked(\"address splitETH\", \"bytes32 name\", \"uint256 timestamp\", \"uint256 amount_0\", \"bool isCredit_0\", \"uint256 amount_1\", \"bool isCredit_1\", \"uint256 amount_2\", \"bool isCredit_2\", \"uint256 amount_3\", \"bool isCredit_3\"));\n        bytes32 typedData = keccak256(abi.encodePacked(abiHash, stateData));\n        return typedData;\n    }\n\n}\n",
  "sourcePath": "/Users/abhijeetsinghkhangarot/Desktop/split/contracts/Split.sol",
  "compiler": {
    "name": "solc",
    "version": "0.5.16+commit.9c3226ce.Emscripten.clang"
  },
  "schemaVersion": "3.0.23",
  "updatedAt": "2020-02-27T05:49:05.121Z",
  "networkType": "ethereum",
  "devdoc": {
    "methods": {}
  },
  "userdoc": {
    "methods": {}
  }
}